{"abi":[{"type":"constructor","inputs":[{"name":"_name","type":"string","internalType":"string"},{"name":"_symbol","type":"string","internalType":"string"}],"stateMutability":"nonpayable"},{"type":"function","name":"balanceOf","inputs":[{"name":"owner","type":"address","internalType":"address"}],"outputs":[{"name":"","type":"uint256","internalType":"uint256"}],"stateMutability":"view"},{"type":"function","name":"mintWithTokenURI","inputs":[{"name":"to","type":"address","internalType":"address"},{"name":"tokenURI","type":"string","internalType":"string"}],"outputs":[{"name":"","type":"uint256","internalType":"uint256"}],"stateMutability":"nonpayable"},{"type":"function","name":"name","inputs":[],"outputs":[{"name":"","type":"string","internalType":"string"}],"stateMutability":"view"},{"type":"function","name":"ownerOf","inputs":[{"name":"tokenId","type":"uint256","internalType":"uint256"}],"outputs":[{"name":"","type":"address","internalType":"address"}],"stateMutability":"view"},{"type":"function","name":"symbol","inputs":[],"outputs":[{"name":"","type":"string","internalType":"string"}],"stateMutability":"view"},{"type":"function","name":"tokenURI","inputs":[{"name":"tokenId","type":"uint256","internalType":"uint256"}],"outputs":[{"name":"","type":"string","internalType":"string"}],"stateMutability":"view"},{"type":"function","name":"totalSupply","inputs":[],"outputs":[{"name":"","type":"uint256","internalType":"uint256"}],"stateMutability":"view"},{"type":"event","name":"Minted","inputs":[{"name":"to","type":"address","indexed":true,"internalType":"address"},{"name":"tokenId","type":"uint256","indexed":true,"internalType":"uint256"},{"name":"tokenURI","type":"string","indexed":false,"internalType":"string"}],"anonymous":false},{"type":"event","name":"Transfer","inputs":[{"name":"from","type":"address","indexed":true,"internalType":"address"},{"name":"to","type":"address","indexed":true,"internalType":"address"},{"name":"tokenId","type":"uint256","indexed":true,"internalType":"uint256"}],"anonymous":false}],"bytecode":{"object":"0x608060405234801561000f575f5ffd5b506040516113e13803806113e1833981810160405281019061003191906101a4565b815f908161003f919061042a565b50806001908161004f919061042a565b5050506104f9565b5f604051905090565b5f5ffd5b5f5ffd5b5f5ffd5b5f5ffd5b5f601f19601f8301169050919050565b7f4e487b71000000000000000000000000000000000000000000000000000000005f52604160045260245ffd5b6100b682610070565b810181811067ffffffffffffffff821117156100d5576100d4610080565b5b80604052505050565b5f6100e7610057565b90506100f382826100ad565b919050565b5f67ffffffffffffffff82111561011257610111610080565b5b61011b82610070565b9050602081019050919050565b8281835e5f83830152505050565b5f610148610143846100f8565b6100de565b9050828152602081018484840111156101645761016361006c565b5b61016f848285610128565b509392505050565b5f82601f83011261018b5761018a610068565b5b815161019b848260208601610136565b91505092915050565b5f5f604083850312156101ba576101b9610060565b5b5f83015167ffffffffffffffff8111156101d7576101d6610064565b5b6101e385828601610177565b925050602083015167ffffffffffffffff81111561020457610203610064565b5b61021085828601610177565b9150509250929050565b5f81519050919050565b7f4e487b71000000000000000000000000000000000000000000000000000000005f52602260045260245ffd5b5f600282049050600182168061026857607f821691505b60208210810361027b5761027a610224565b5b50919050565b5f819050815f5260205f209050919050565b5f6020601f8301049050919050565b5f82821b905092915050565b5f600883026102dd7fffffffffffffffffffffffffffffffffffffffffffffffffffffffffffffffff826102a2565b6102e786836102a2565b95508019841693508086168417925050509392505050565b5f819050919050565b5f819050919050565b5f61032b610326610321846102ff565b610308565b6102ff565b9050919050565b5f819050919050565b61034483610311565b61035861035082610332565b8484546102ae565b825550505050565b5f5f905090565b61036f610360565b61037a81848461033b565b505050565b5b8181101561039d576103925f82610367565b600181019050610380565b5050565b601f8211156103e2576103b381610281565b6103bc84610293565b810160208510156103cb578190505b6103df6103d785610293565b83018261037f565b50505b505050565b5f82821c905092915050565b5f6104025f19846008026103e7565b1980831691505092915050565b5f61041a83836103f3565b9150826002028217905092915050565b6104338261021a565b67ffffffffffffffff81111561044c5761044b610080565b5b6104568254610251565b6104618282856103a1565b5f60209050601f831160018114610492575f8415610480578287015190505b61048a858261040f565b8655506104f1565b601f1984166104a086610281565b5f5b828110156104c7578489015182556001820191506020850194506020810190506104a2565b868310156104e457848901516104e0601f8916826103f3565b8355505b6001600288020188555050505b505050505050565b610edb806105065f395ff3fe608060405234801561000f575f5ffd5b506004361061007b575f3560e01c80636352211e116100595780636352211e146100eb57806370a082311461011b57806395d89b411461014b578063c87b56dd146101695761007b565b806306fdde031461007f57806318160ddd1461009d57806345c17782146100bb575b5f5ffd5b610087610199565b6040516100949190610785565b60405180910390f35b6100a5610224565b6040516100b291906107bd565b60405180910390f35b6100d560048036038101906100d0919061096d565b61022d565b6040516100e291906107bd565b60405180910390f35b610105600480360381019061010091906109f1565b6103bf565b6040516101129190610a2b565b60405180910390f35b61013560048036038101906101309190610a44565b610496565b60405161014291906107bd565b60405180910390f35b61015361054a565b6040516101609190610785565b60405180910390f35b610183600480360381019061017e91906109f1565b6105d6565b6040516101909190610785565b60405180910390f35b5f80546101a590610a9c565b80601f01602080910402602001604051908101604052809291908181526020018280546101d190610a9c565b801561021c5780601f106101f35761010080835404028352916020019161021c565b820191905f5260205f20905b8154815290600101906020018083116101ff57829003601f168201915b505050505081565b5f600254905090565b5f5f600254905060025f81548092919061024690610af9565b91905055508360045f8381526020019081526020015f205f6101000a81548173ffffffffffffffffffffffffffffffffffffffff021916908373ffffffffffffffffffffffffffffffffffffffff1602179055508260035f8381526020019081526020015f2090816102b89190610ce0565b5060055f8573ffffffffffffffffffffffffffffffffffffffff1673ffffffffffffffffffffffffffffffffffffffff1681526020019081526020015f205f81548092919061030690610af9565b9190505550808473ffffffffffffffffffffffffffffffffffffffff165f73ffffffffffffffffffffffffffffffffffffffff167fddf252ad1be2c89b69c2b068fc378daa952ba7f163c4a11628f55a4df523b3ef60405160405180910390a4808473ffffffffffffffffffffffffffffffffffffffff167fe7cd4ce7f2a465edc730269a1305e8a48bad821e8fb7e152ec413829c01a53c4856040516103ad9190610785565b60405180910390a38091505092915050565b5f5f73ffffffffffffffffffffffffffffffffffffffff1660045f8481526020019081526020015f205f9054906101000a900473ffffffffffffffffffffffffffffffffffffffff1673ffffffffffffffffffffffffffffffffffffffff160361045e576040517f08c379a000000000000000000000000000000000000000000000000000000000815260040161045590610df9565b60405180910390fd5b60045f8381526020019081526020015f205f9054906101000a900473ffffffffffffffffffffffffffffffffffffffff169050919050565b5f5f73ffffffffffffffffffffffffffffffffffffffff168273ffffffffffffffffffffffffffffffffffffffff1603610505576040517f08c379a00000000000000000000000000000000000000000000000000000000081526004016104fc90610e87565b60405180910390fd5b60055f8373ffffffffffffffffffffffffffffffffffffffff1673ffffffffffffffffffffffffffffffffffffffff1681526020019081526020015f20549050919050565b6001805461055790610a9c565b80601f016020809104026020016040519081016040528092919081815260200182805461058390610a9c565b80156105ce5780601f106105a5576101008083540402835291602001916105ce565b820191905f5260205f20905b8154815290600101906020018083116105b157829003601f168201915b505050505081565b60605f73ffffffffffffffffffffffffffffffffffffffff1660045f8481526020019081526020015f205f9054906101000a900473ffffffffffffffffffffffffffffffffffffffff1673ffffffffffffffffffffffffffffffffffffffff1603610676576040517f08c379a000000000000000000000000000000000000000000000000000000000815260040161066d90610df9565b60405180910390fd5b60035f8381526020019081526020015f20805461069290610a9c565b80601f01602080910402602001604051908101604052809291908181526020018280546106be90610a9c565b80156107095780601f106106e057610100808354040283529160200191610709565b820191905f5260205f20905b8154815290600101906020018083116106ec57829003601f168201915b50505050509050919050565b5f81519050919050565b5f82825260208201905092915050565b8281835e5f83830152505050565b5f601f19601f8301169050919050565b5f61075782610715565b610761818561071f565b935061077181856020860161072f565b61077a8161073d565b840191505092915050565b5f6020820190508181035f83015261079d818461074d565b905092915050565b5f819050919050565b6107b7816107a5565b82525050565b5f6020820190506107d05f8301846107ae565b92915050565b5f604051905090565b5f5ffd5b5f5ffd5b5f73ffffffffffffffffffffffffffffffffffffffff82169050919050565b5f610810826107e7565b9050919050565b61082081610806565b811461082a575f5ffd5b50565b5f8135905061083b81610817565b92915050565b5f5ffd5b5f5ffd5b7f4e487b71000000000000000000000000000000000000000000000000000000005f52604160045260245ffd5b61087f8261073d565b810181811067ffffffffffffffff8211171561089e5761089d610849565b5b80604052505050565b5f6108b06107d6565b90506108bc8282610876565b919050565b5f67ffffffffffffffff8211156108db576108da610849565b5b6108e48261073d565b9050602081019050919050565b828183375f83830152505050565b5f61091161090c846108c1565b6108a7565b90508281526020810184848401111561092d5761092c610845565b5b6109388482856108f1565b509392505050565b5f82601f83011261095457610953610841565b5b81356109648482602086016108ff565b91505092915050565b5f5f60408385031215610983576109826107df565b5b5f6109908582860161082d565b925050602083013567ffffffffffffffff8111156109b1576109b06107e3565b5b6109bd85828601610940565b9150509250929050565b6109d0816107a5565b81146109da575f5ffd5b50565b5f813590506109eb816109c7565b92915050565b5f60208284031215610a0657610a056107df565b5b5f610a13848285016109dd565b91505092915050565b610a2581610806565b82525050565b5f602082019050610a3e5f830184610a1c565b92915050565b5f60208284031215610a5957610a586107df565b5b5f610a668482850161082d565b91505092915050565b7f4e487b71000000000000000000000000000000000000000000000000000000005f52602260045260245ffd5b5f6002820490506001821680610ab357607f821691505b602082108103610ac657610ac5610a6f565b5b50919050565b7f4e487b71000000000000000000000000000000000000000000000000000000005f52601160045260245ffd5b5f610b03826107a5565b91507fffffffffffffffffffffffffffffffffffffffffffffffffffffffffffffffff8203610b3557610b34610acc565b5b600182019050919050565b5f819050815f5260205f209050919050565b5f6020601f8301049050919050565b5f82821b905092915050565b5f60088302610b9c7fffffffffffffffffffffffffffffffffffffffffffffffffffffffffffffffff82610b61565b610ba68683610b61565b95508019841693508086168417925050509392505050565b5f819050919050565b5f610be1610bdc610bd7846107a5565b610bbe565b6107a5565b9050919050565b5f819050919050565b610bfa83610bc7565b610c0e610c0682610be8565b848454610b6d565b825550505050565b5f5f905090565b610c25610c16565b610c30818484610bf1565b505050565b5b81811015610c5357610c485f82610c1d565b600181019050610c36565b5050565b601f821115610c9857610c6981610b40565b610c7284610b52565b81016020851015610c81578190505b610c95610c8d85610b52565b830182610c35565b50505b505050565b5f82821c905092915050565b5f610cb85f1984600802610c9d565b1980831691505092915050565b5f610cd08383610ca9565b9150826002028217905092915050565b610ce982610715565b67ffffffffffffffff811115610d0257610d01610849565b5b610d0c8254610a9c565b610d17828285610c57565b5f60209050601f831160018114610d48575f8415610d36578287015190505b610d408582610cc5565b865550610da7565b601f198416610d5686610b40565b5f5b82811015610d7d57848901518255600182019150602085019450602081019050610d58565b86831015610d9a5784890151610d96601f891682610ca9565b8355505b6001600288020188555050505b505050505050565b7f546f6b656e20646f6573206e6f742065786973740000000000000000000000005f82015250565b5f610de360148361071f565b9150610dee82610daf565b602082019050919050565b5f6020820190508181035f830152610e1081610dd7565b9050919050565b7f41646472657373207a65726f206973206e6f7420612076616c6964206f776e655f8201527f7200000000000000000000000000000000000000000000000000000000000000602082015250565b5f610e7160218361071f565b9150610e7c82610e17565b604082019050919050565b5f6020820190508181035f830152610e9e81610e65565b905091905056fea2646970667358221220078af6395a0ce0af677fe4a4762c8295e8b30c0b4897ddf8bc4a0cdbec6e1a0a64736f6c634300081e0033","linkReferences":{}},"methodIdentifiers":{"balanceOf(address)":"70a08231","mintWithTokenURI(address,string)":"45c17782","name()":"06fdde03","ownerOf(uint256)":"6352211e","symbol()":"95d89b41","tokenURI(uint256)":"c87b56dd","totalSupply()":"18160ddd"},"id":0}